{
  "contractName": "Lottery",
  "abi": [
    {
      "inputs": [],
      "stateMutability": "nonpayable",
      "type": "constructor"
    },
    {
      "inputs": [],
      "name": "manager",
      "outputs": [
        {
          "internalType": "address",
          "name": "",
          "type": "address"
        }
      ],
      "stateMutability": "view",
      "type": "function"
    },
    {
      "inputs": [
        {
          "internalType": "uint256",
          "name": "",
          "type": "uint256"
        }
      ],
      "name": "persons",
      "outputs": [
        {
          "internalType": "address",
          "name": "",
          "type": "address"
        }
      ],
      "stateMutability": "view",
      "type": "function"
    },
    {
      "inputs": [],
      "name": "enter",
      "outputs": [],
      "stateMutability": "payable",
      "type": "function"
    },
    {
      "inputs": [],
      "name": "random",
      "outputs": [
        {
          "internalType": "uint256",
          "name": "",
          "type": "uint256"
        }
      ],
      "stateMutability": "view",
      "type": "function"
    },
    {
      "inputs": [],
      "name": "pickwinner",
      "outputs": [],
      "stateMutability": "nonpayable",
      "type": "function"
    },
    {
      "inputs": [],
      "name": "getAllEntries",
      "outputs": [
        {
          "internalType": "address[]",
          "name": "",
          "type": "address[]"
        }
      ],
      "stateMutability": "view",
      "type": "function"
    }
  ],
  "bytecode": "0x608060405234801561001057600080fd5b50336000806101000a81548173ffffffffffffffffffffffffffffffffffffffff021916908373ffffffffffffffffffffffffffffffffffffffff16021790555061062b806100606000396000f3fe6080604052600436106100555760003560e01c8063481c6a751461005a5780634a0364e8146100b15780635ec01e4d1461011d57806371b8006014610148578063a2f9eac61461015f578063e97dcb62146101da575b600080fd5b34801561006657600080fd5b5061006f6101e4565b604051808273ffffffffffffffffffffffffffffffffffffffff1673ffffffffffffffffffffffffffffffffffffffff16815260200191505060405180910390f35b3480156100bd57600080fd5b506100c6610209565b6040518080602001828103825283818151815260200191508051906020019060200280838360005b838110156101095780820151818401526020810190506100ee565b505050509050019250505060405180910390f35b34801561012957600080fd5b50610132610297565b6040518082815260200191505060405180910390f35b34801561015457600080fd5b5061015d610339565b005b34801561016b57600080fd5b506101986004803603602081101561018257600080fd5b8101908080359060200190929190505050610474565b604051808273ffffffffffffffffffffffffffffffffffffffff1673ffffffffffffffffffffffffffffffffffffffff16815260200191505060405180910390f35b6101e26104b0565b005b6000809054906101000a900473ffffffffffffffffffffffffffffffffffffffff1681565b6060600180548060200260200160405190810160405280929190818152602001828054801561028d57602002820191906000526020600020905b8160009054906101000a900473ffffffffffffffffffffffffffffffffffffffff1673ffffffffffffffffffffffffffffffffffffffff1681526020019060010190808311610243575b5050505050905090565b60004442600160405160200180848152602001838152602001828054801561031457602002820191906000526020600020905b8160009054906101000a900473ffffffffffffffffffffffffffffffffffffffff1673ffffffffffffffffffffffffffffffffffffffff16815260200190600101908083116102ca575b505093505050506040516020818303038152906040528051906020012060001c905090565b6000809054906101000a900473ffffffffffffffffffffffffffffffffffffffff1673ffffffffffffffffffffffffffffffffffffffff163373ffffffffffffffffffffffffffffffffffffffff161461039257600080fd5b60006001805490506103a2610297565b816103a957fe5b069050600181815481106103b957fe5b9060005260206000200160009054906101000a900473ffffffffffffffffffffffffffffffffffffffff1673ffffffffffffffffffffffffffffffffffffffff166108fc479081150290604051600060405180830381858888f19350505050158015610429573d6000803e3d6000fd5b50600060405190808252806020026020018201604052801561045a5781602001602082028038833980820191505090505b5060019080519060200190610470929190610528565b5050565b6001818154811061048157fe5b906000526020600020016000915054906101000a900473ffffffffffffffffffffffffffffffffffffffff1681565b662386f26fc1000034116104c357600080fd5b6001339080600181540180825580915050600190039060005260206000200160009091909190916101000a81548173ffffffffffffffffffffffffffffffffffffffff021916908373ffffffffffffffffffffffffffffffffffffffff160217905550565b8280548282559060005260206000209081019282156105a1579160200282015b828111156105a05782518260006101000a81548173ffffffffffffffffffffffffffffffffffffffff021916908373ffffffffffffffffffffffffffffffffffffffff16021790555091602001919060010190610548565b5b5090506105ae91906105b2565b5090565b6105f291905b808211156105ee57600081816101000a81549073ffffffffffffffffffffffffffffffffffffffff0219169055506001016105b8565b5090565b9056fea2646970667358221220ff75ccbdb5c662d40b6b3b868dd68fa11782b530d7e891efb0b94b9566c3191964736f6c63430006000033",
  "source": "// SPDX-License-Identifier: GPL-3.0\r\n\r\npragma solidity ^0.6.0;\r\ncontract Lottery{\r\n\r\naddress public manager;\r\n\r\naddress[] public persons;\r\n\r\nconstructor() public {\r\n\r\n    manager=msg.sender;\r\n}\r\n\r\nfunction enter() public payable{\r\n\r\n    require(msg.value > .01 ether);\r\n    persons.push(msg.sender);\r\n}\r\n\r\nfunction random() public view returns(uint){\r\n    return uint(keccak256(abi.encodePacked(block.difficulty,block.timestamp,persons)));\r\n}\r\n\r\nfunction pickwinner() public restricted{\r\n uint x=random() % persons.length;\r\n payable(persons[x]).transfer(address(this).balance);\r\n persons = new address[](0);   // O is used to start an array with zero number of elements\r\n\r\n}\r\n\r\nmodifier restricted(){\r\n\r\n    require(msg.sender==manager);\r\n    _;\r\n}\r\n\r\nfunction getAllEntries() public view returns (address[] memory){\r\n\r\n    return persons;\r\n}\r\n\r\n}",
  "sourcePath": "E:\\BITS_Academics\\SEM2\\RP\\Lottery\\contracts\\Lottery.sol",
  "compiler": {
    "name": "solc",
    "version": "0.6.0+commit.26b70077.Emscripten.clang"
  },
  "schemaVersion": "3.4.3",
  "updatedAt": "2022-05-08T05:37:49.072Z",
  "devdoc": {
    "methods": {}
  },
  "userdoc": {
    "methods": {}
  }
}